:100000000C942A000C9447000C9447000C94470071
:100010000C9447000C9447000C9447000C94470044
:100020000C9447000C9447000C942C080C9459082D
:100030000C9497070C94370A0C9447000C944700D3
:100040000C942F020C9447000C9447000C9447002A
:100050000C94470011241FBECFE5D8E0DEBFCDBF12
:1000600010E0A0E6B0E0E0E1FAE102C005900D92F8
:10007000A436B107D9F710E0A4E6B0E001C01D92A4
:10008000AB39B107E1F70E94730A0C94060D0C948A
:1000900000000F931F93DF93CF93CDB7DEB7629726
:1000A0000FB6F894DEBF0FBECDBF9A8789877C87D5
:1000B0006B875E874D87388B2F871A8B098B2B8533
:1000C0003C8589859A85A901481B590B2F8538895C
:1000D0008D859E85281B390BCA01B9010E94C20C6F
:1000E000CB019E838D8389899A899C838B831A8215
:1000F00019822B813C8189859A85A901481B590B5E
:10010000CA012D813E81B9010E94C20CCB019C0124
:100110008D859E85820F931F9A83898329893A89C9
:1001200089859A85281739072CF48D859E859887AF
:100130008F8310C029893A898B859C858217930704
:100140002CF48F85988998878F8304C089819A8140
:1001500098878F838F81988562960FB6F894DEBF5B
:100160000FBECDBFCF91DF911F910F910895DF9307
:10017000CF93CDB7DEB7A6E2B0E0E6E2F0E0808153
:1001800080688C93A6E2B0E0E6E2F0E080818160D6
:100190008C93A6E2B0E0E6E2F0E0808182608C938E
:1001A000A6E2B0E0E6E2F0E0808184608C93A7E212
:1001B000B0E0E7E2F0E0808180648C93A7E2B0E0F9
:1001C000E7E2F0E080818F778C93A7E2B0E0E7E28E
:1001D000F0E080818F7D8C93CF91DF910895DF9344
:1001E000CF93CDB7DEB728970FB6F894DEBF0FBE1A
:1001F000CDBF8E8378876F831D8219821A821B82FE
:100200001C8280916A00882309F05EC081E080939F
:100210006A008F819885009709F453C0A7E2B0E087
:10022000E7E2F0E08081982F907E8E81892B8C937D
:10023000A6E2B0E0E6E2F0E0808180648C930BC03F
:1002400089819A81AB81BC810196A11DB11D8983F1
:100250009A83AB83BC83E6E2F0E0808182958F7065
:10026000882F90E081709070009761F489819A8165
:10027000AB81BC81803523EC920720E0A20720E00F
:10028000B207F1F689819A81AB81BC81803523EC7C
:10029000920720E0A20720E0B20711F481E08D83ED
:1002A000A6E2B0E0E6E2F0E0808180618C93E4E2D7
:1002B000F0E080819181EF81F885808310926A005F
:1002C00005C082E08D8302C083E08D838D812896F6
:1002D0000FB6F894DEBF0FBECDBFCF91DF9108956A
:1002E000DF93CF9300D000D000D0CDB7DEB78A83A4
:1002F0007C836B835E834D8319828B819C81009705
:1003000021F08D819E81009719F482E0898334C0A9
:1003100080916A00882351F581E080936A001092F1
:1003200071008B819C8190936700809366008D8122
:100330009E819093650080936400A7E2B0E0E7E2BD
:10034000F0E08081982F907E8A81892B8C93A6E2A1
:10035000B0E0E6E2F0E0808180648C93A6E2B0E059
:10036000E6E2F0E0808188608C9306C080916A00AC
:10037000813011F483E08983898126960FB6F89441
:10038000DEBF0FBECDBFCF91DF910895DF93CF9336
:1003900000D00F92CDB7DEB79B838A8319828A8102
:1003A0009B81009719F482E0898352C080916A0092
:1003B000882309F047C081E080936A0081E0809340
:1003C0007100EA81FB818081918190936C00809320
:1003D0006B00EA81FB81848180937000EA81FB815C
:1003E0008281938190936E0080936D00EA81FB81FE
:1003F000858196819093650080936400A7E2B0E0C8
:10040000E7E2F0E08081482F407E20916B00309140
:100410006C0080916F00882F90E0F901E80FF91FC0
:100420008081842B8C93A6E2B0E0E6E2F0E080814C
:1004300080648C93A6E2B0E0E6E2F0E08081886020
:100440008C9306C080916A00813011F483E0898327
:1004500089810F900F900F90CF91DF9108951F9297
:100460000F920FB60F9211242F933F934F935F93E8
:100470006F937F938F939F93AF93BF93EF93FF936C
:10048000DF93CF93CDB7DEB7809171008823C9F495
:10049000A0916600B0916700E4E2F0E08081918174
:1004A0008D939C9310926A00E0916400F091650036
:1004B0000995A6E2B0E0E6E2F0E08081877F8C93C8
:1004C00051C080917100813009F04CC020916D00C5
:1004D00030916E0080916F00882F90E0880F991FF7
:1004E000D901A80FB91FE4E2F0E080819181119653
:1004F0009C938E9380916F008F5F80936F0090919B
:100500006F0080917000981789F410926A00E09152
:100510006400F09165000995A6E2B0E0E6E2F0E043
:100520008081877F8C9310926F001CC0A7E2B0E09F
:10053000E7E2F0E08081482F407E20916B0030910F
:100540006C0080916F00882F90E0F901E80FF91F8F
:100550008081842B8C93A6E2B0E0E6E2F0E080811B
:1005600080648C93CF91DF91FF91EF91BF91AF9118
:100570009F918F917F916F915F914F913F912F91BB
:100580000F900FBE0F901F901895DF93CF9300D060
:1005900000D0CDB7DEB789836A838981282F30E008
:1005A0003C832B838B819C818130910521F12B81B0
:1005B0003C81223031052CF48B819C81009761F0C5
:1005C00046C02B813C812230310521F18B819C81F9
:1005D0008330910571F13BC08A81813029F4EAE3CF
:1005E000F0E08FEF808333C08A81882381F5EAE3CE
:1005F000F0E010822CC08A81813029F4E7E3F0E03A
:100600008FEF808324C08A81882309F5E7E3F0E037
:1006100010821DC08A81813029F4E4E3F0E08FEF7D
:10062000808315C08A81882391F4E4E3F0E010828E
:100630000EC08A81813029F4E1E3F0E08FEF8083FE
:1006400006C08A81882319F4E1E3F0E010820F905C
:100650000F900F900F90CF91DF910895DF93CF937C
:1006600000D000D0CDB7DEB789836A838981282F77
:1006700030E03C832B838B819C818130910549F153
:100680002B813C81223031052CF48B819C81009799
:1006900061F05AC02B813C812230310571F18B8190
:1006A0009C8183309105E9F14FC08A81813029F422
:1006B000EBE3F0E08FEF808347C08A81882321F449
:1006C000EBE3F0E0108240C0EBE3F0E08A8180834E
:1006D0003BC08A81813029F4E8E3F0E08FEF80832A
:1006E00033C08A81882321F4E8E3F0E010822CC033
:1006F000E8E3F0E08A81808327C08A81813029F491
:10070000E5E3F0E08FEF80831FC08A81882321F426
:10071000E5E3F0E0108218C0E5E3F0E08A81808331
:1007200013C08A81813029F4E2E3F0E08FEF808307
:100730000BC08A81882321F4E2E3F0E0108204C038
:10074000E2E3F0E08A8180830F900F900F900F908A
:10075000CF91DF910895DF93CF9300D000D00F9217
:10076000CDB7DEB789836A834B838981282F30E038
:100770003D832C838C819D818130910509F447C094
:100780002C813D81223031052CF48C819D81009794
:1007900071F0CBC02C813D812230310509F467C056
:1007A0008C819D818330910509F491C0BEC08B81FD
:1007B0008130A1F4AAE3B0E0EAE3F0E08081482FC1
:1007C0008A81282F30E081E090E0022E02C0880F5D
:1007D000991F0A94E2F7842B8C93A7C08B818823FE
:1007E00009F0A3C0AAE3B0E0EAE3F0E08081482F7B
:1007F0008A81282F30E081E090E0022E02C0880F2D
:10080000991F0A94E2F7809584238C938EC08B8184
:100810008130A1F4A7E3B0E0E7E3F0E08081482F66
:100820008A81282F30E081E090E0022E02C0880FFC
:10083000991F0A94E2F7842B8C9377C08B818823CD
:1008400009F073C0A7E3B0E0E7E3F0E08081482F50
:100850008A81282F30E081E090E0022E02C0880FCC
:10086000991F0A94E2F7809584238C935EC08B8154
:100870008130A1F4A4E3B0E0E4E3F0E08081482F0C
:100880008A81282F30E081E090E0022E02C0880F9C
:10089000991F0A94E2F7842B8C9347C08B8188239D
:1008A00009F043C0A4E3B0E0E4E3F0E08081482F26
:1008B0008A81282F30E081E090E0022E02C0880F6C
:1008C000991F0A94E2F7809584238C932EC08B8124
:1008D0008130A1F4A1E3B0E0E1E3F0E08081482FB2
:1008E0008A81282F30E081E090E0022E02C0880F3C
:1008F000991F0A94E2F7842B8C9317C08B8188236D
:10090000A1F4A1E3B0E0E1E3F0E08081482F8A8127
:10091000282F30E081E090E0022E02C0880F991F5E
:100920000A94E2F7809584238C930F900F900F9098
:100930000F900F90CF91DF910895DF93CF9300D068
:1009400000D00F92CDB7DEB789836A834B8389814C
:10095000282F30E03D832C838C819D81813091054F
:1009600009F447C02C813D81223031052CF48C8163
:100970009D81009771F0CBC02C813D8122303105E3
:1009800009F467C08C819D818330910509F491C081
:10099000BEC08B818130A1F4ABE3B0E0EBE3F0E0CB
:1009A0008081482F8A81282F30E081E090E0022E5C
:1009B00002C0880F991F0A94E2F7842B8C93A7C07A
:1009C0008B81882309F0A3C0ABE3B0E0EBE3F0E058
:1009D0008081482F8A81282F30E081E090E0022E2C
:1009E00002C0880F991F0A94E2F7809584238C93A4
:1009F0008EC08B818130A1F4A8E3B0E0E8E3F0E0A1
:100A00008081482F8A81282F30E081E090E0022EFB
:100A100002C0880F991F0A94E2F7842B8C9377C049
:100A20008B81882309F073C0A8E3B0E0E8E3F0E02D
:100A30008081482F8A81282F30E081E090E0022ECB
:100A400002C0880F991F0A94E2F7809584238C9343
:100A50005EC08B818130A1F4A5E3B0E0E5E3F0E076
:100A60008081482F8A81282F30E081E090E0022E9B
:100A700002C0880F991F0A94E2F7842B8C9347C019
:100A80008B81882309F043C0A5E3B0E0E5E3F0E003
:100A90008081482F8A81282F30E081E090E0022E6B
:100AA00002C0880F991F0A94E2F7809584238C93E3
:100AB0002EC08B818130A1F4A2E3B0E0E2E3F0E04C
:100AC0008081482F8A81282F30E081E090E0022E3B
:100AD00002C0880F991F0A94E2F7842B8C9317C0E9
:100AE0008B818823A1F4A2E3B0E0E2E3F0E080810F
:100AF000482F8A81282F30E081E090E0022E02C04A
:100B0000880F991F0A94E2F7809584238C930F90A5
:100B10000F900F900F900F90CF91DF910895DF937A
:100B2000CF9300D000D0CDB7DEB789836A838981A7
:100B3000282F30E03C832B838B819C818130910571
:100B400049F12B813C81223031052CF48B819C8131
:100B5000009761F05AC02B813C812230310571F140
:100B60008B819C8183309105E9F14FC0ABE3B0E00C
:100B7000EBE3F0E08081482F8A81282F30E081E08C
:100B800090E0022E02C0880F991F0A94E2F7842792
:100B90008C933BC0A8E3B0E0E8E3F0E08081482F0D
:100BA0008A81282F30E081E090E0022E02C0880F79
:100BB000991F0A94E2F784278C9327C0A5E3B0E03D
:100BC000E5E3F0E08081482F8A81282F30E081E042
:100BD00090E0022E02C0880F991F0A94E2F7842742
:100BE0008C9313C0A2E3B0E0E2E3F0E08081482FF1
:100BF0008A81282F30E081E090E0022E02C0880F29
:100C0000991F0A94E2F784278C930F900F900F900E
:100C10000F90CF91DF910895DF93CF9300D000D054
:100C20000F92CDB7DEB78A836B838A81282F30E09D
:100C30003D832C834C815D814130510541F18C8194
:100C40009D818230910534F42C813D81211531053F
:100C500061F052C04C815D814230510551F18C816F
:100C60009D8183309105B9F147C0E9E3F0E08081CF
:100C7000282F30E08B81882F90E0A90102C0559584
:100C800047958A95E2F7CA018170898335C0E6E30A
:100C9000F0E08081282F30E08B81882F90E0A9013F
:100CA00002C0559547958A95E2F7CA0181708983FC
:100CB00023C0E3E3F0E08081282F30E08B81882F90
:100CC00090E0A90102C0559547958A95E2F7CA01BF
:100CD0008170898311C0E0E3F0E08081282F30E04B
:100CE0008B81882F90E0A90102C0559547958A9580
:100CF000E2F7CA018170898389810F900F900F906C
:100D00000F900F90CF91DF910895DF93CF93CDB7E0
:100D1000DEB7AFE5B0E0EFE5F0E0808180688C936E
:100D2000CF91DF910895DF93CF93CDB7DEB7AFE5D5
:100D3000B0E0EFE5F0E080818F778C93CF91DF9189
:100D40000895DF93CF93CDB7DEB70E94D3078FED21
:100D500096E00E940508CF91DF910895DF93CF932D
:100D600000D000D00F92CDB7DEB789837B836A8332
:100D70005D834C838981882F90E0880F991F880FAD
:100D8000991FFC01EE58FF4F8A819B8191838083DC
:100D90008981882F90E0880F991F0196880F991FED
:100DA000FC01EE58FF4F8C819D81918380830F90D1
:100DB0000F900F900F900F90CF91DF910895DF93D8
:100DC000CF930F92CDB7DEB780917A0090917B00E0
:100DD000019690937B0080937A00198228C04091FD
:100DE0007A0050917B008981882F90E0880F991FAD
:100DF000880F991FFC01EE58FF4F20813181CA01F5
:100E0000B9010E94AE0C009779F48981882F90E097
:100E1000880F991F0196880F991FFC01EE58FF4F0C
:100E20000190F081E02D099589818F5F8983898107
:100E30008230A8F20F90CF91DF910895DF93CF9386
:100E4000CDB7DEB7ADE2B0E0EDE2F0E080818061E9
:100E50008C93ADE2B0E0EDE2F0E0808181608C93B4
:100E6000ADE2B0E0EDE2F0E080818D7F8C93AEE208
:100E7000B0E0EEE2F0E080818E7F8C93ADE2B0E0F6
:100E8000EDE2F0E0808180648C93CF91DF91089552
:100E9000DF93CF93CDB7DEB7ADE2B0E0EDE2F0E0A7
:100EA00080818F7E8C93ADE2B0E0EDE2F0E0808156
:100EB00080648C93CF91DF910895DF93CF930F924D
:100EC000CDB7DEB78983EFE2F0E089818083EEE27F
:100ED000F0E080818823DCF7EFE2F0E080810F9082
:100EE000CF91DF910895DF93CF9300D000D0CDB79D
:100EF000DEB79A8389837C836B83ADE2B0E0EDE259
:100F0000F0E0808180688C938B819C8190937F003E
:100F100080937E0089819A8190937D0080937C00EC
:100F20000F900F900F900F90CF91DF9108951F9227
:100F30000F920FB60F9211242F933F934F935F930D
:100F40006F937F938F939F93AF93BF93EF93FF9391
:100F5000DF93CF93CDB7DEB7A0917C00B0917D0039
:100F6000EFE2F0E080818C93E0917E00F0917F00D1
:100F70000995ADE2B0E0EDE2F0E080818F778C93EF
:100F8000CF91DF91FF91EF91BF91AF919F918F91A1
:100F90007F916F915F914F913F912F910F900FBE75
:100FA0000F901F901895DF93CF93CDB7DEB7A3E5D1
:100FB000B0E0E3E5F0E080818C7F82608C93A3E574
:100FC000B0E0E3E5F0E080818F7B8C93A3E5B0E0B7
:100FD000E3E5F0E08081877F8C93A3E5B0E0E3E573
:100FE000F0E080818F7B8C93A3E5B0E0E3E5F0E057
:100FF000808188608C93ECE5F0E08FEF8083E2E500
:10100000F0E01082CF91DF910895DF93CF9300D06D
:10101000CDB7DEB79A838983A9E5B0E0E9E5F0E0D2
:10102000808182608C9389819A81909381008093E2
:1010300080000F900F90CF91DF910895DF93CF93B1
:101040000F92CDB7DEB78983ECE5F0E0898180832C
:101050000F90CF91DF9108951F920F920FB60F92CC
:1010600011242F933F934F935F936F937F938F93AD
:101070009F93AF93BF93EF93FF93DF93CF93CDB73E
:10108000DEB7E0918000F09181000995CF91DF916A
:10109000FF91EF91BF91AF919F918F917F916F9150
:1010A0005F914F913F912F910F900FBE0F901F9026
:1010B00018951F920F920FB60F9211242F933F9302
:1010C0004F935F936F937F938F939F93AF93BF9350
:1010D000EF93FF93DF93CF93CDB7DEB7E09180001E
:1010E000F09181000995CF91DF91FF91EF91BF9130
:1010F000AF919F918F917F916F915F914F913F91B0
:101100002F910F900FBE0F901F901895DF93CF93E4
:10111000CDB7DEB7AFE4B0E0EFE4F0E08081806807
:101120008C93AFE4B0E0EFE4F0E080818F7B8C93B0
:10113000AFE4B0E0EFE4F0E0808182608C93AFE454
:10114000B0E0EFE4F0E080818E7F8C93AEE4B0E01D
:10115000EEE4F0E0808180618C93AEE4B0E0EEE4F8
:10116000F0E0808188608C93AEE4B0E0EEE4F0E0E3
:1011700080818B7F8C93AEE4B0E0EEE4F0E0808180
:1011800082608C93AEE4B0E0EEE4F0E080818E7F8C
:101190008C93CF91DF910895DF93CF9300D0CDB79B
:1011A000DEB79A838983E6E4F0E089819A819183AE
:1011B00080830F900F90CF91DF910895DF93CF93AD
:1011C00000D0CDB7DEB79A838983EAE4F0E0898165
:1011D0009A81918380830F900F90CF91DF91089532
:1011E000DF93CF930F92CDB7DEB7AAE2B0E0EAE289
:1011F000F0E0808180618C93AAE2B0E0EAE2F0E066
:10120000808188608C93E9E2F0E083E38083198237
:1012100089818068898389818F7B898389818F7D9A
:10122000898389818F7E89838981877F8983AAE2E7
:10123000B0E0EAE2F0E080818B7F8C93898184606A
:101240008983898182608983898181608983E0E4DF
:10125000F0E0898180830F90CF91DF910895DF9333
:10126000CF930F92CDB7DEB78983EBE2F0E08081B8
:10127000829586958770882F90E081709070009796
:10128000A1F3ECE2F0E0898180830F90CF91DF91B0
:101290000895DF93CF9300D000D00F92CDB7DEB783
:1012A00019821A821B821C820BC089819A81AB81B0
:1012B000BC810196A11DB11D89839A83AB83BC8338
:1012C000EBE2F0E08081881F8827881F813061F081
:1012D00089819A81AB81BC81803A26E8920721E01E
:1012E000A20720E0B20709F789819A81AB81BC810E
:1012F000803A26E8920721E0A20720E0B20711F425
:101300001D8204C0ECE2F0E080818D838D810F901E
:101310000F900F900F900F90CF91DF910895DF9372
:10132000CF93CDB7DEB7A1970FB6F894DEBF0FBE4F
:10133000CDBF89A380E2FE013196DF01982F1D9277
:101340009A95E9F789A1882F90E09E012F5F3F4F82
:10135000B9014AE050E00E94D50CCE0101960E94EE
:10136000BA09A1960FB6F894DEBF0FBECDBFCF91DC
:10137000DF910895DF93CF9300D0CDB7DEB79A8386
:1013800089830AC0E981FA8180810E942F098981BD
:101390009A8101969A838983E981FA8180818823E1
:1013A00089F70F900F90CF91DF9108950F931F93BE
:1013B000DF93CF9300D000D000D0CDB7DEB79B83B2
:1013C0008A836C8319828981282F30E08A819B81EE
:1013D0008C01020F131F0E944909F8018083898143
:1013E000282F30E08A819B81FC01E20FF31F90815E
:1013F0008C81981721F089818F5F8983E4CF89815F
:10140000282F30E08A819B81FC01E20FF31F1082BC
:1014100026960FB6F894DEBF0FBECDBFCF91DF91F9
:101420001F910F910895DF93CF9300D000D0CDB7D7
:10143000DEB79A8389837C836B83AAE2B0E0EAE219
:10144000F0E0808180688C938B819C8190938300F5
:101450008093820089819A8190938900809388008B
:101460000F900F900F900F90CF91DF9108951F92E2
:101470000F920FB60F9211242F933F934F935F93C8
:101480006F937F938F939F93AF93BF93EF93FF934C
:10149000DF93CF93CDB7DEB7A0918800B0918900DC
:1014A000ECE2F0E080818C93E0918200F091830087
:1014B0000995AAE2B0E0EAE2F0E080818F778C93B0
:1014C000CF91DF91FF91EF91BF91AF919F918F915C
:1014D0007F916F915F914F913F912F910F900FBE30
:1014E0000F901F901895DF93CF93CDB7DEB70E9472
:1014F0008C0A81E990E00E94C60184E890E026EA27
:101500003BE0B9010E94130A85E890E02AE73CE03D
:10151000B9010E947307EDCFDF93CF93CDB7DEB74C
:1015200080E690E0909392008093910083E0809316
:1015300095008AE890E0909394008093930081EE68
:101540009AE0909397008093960082E061E00E9479
:10155000C50282E063E041E00E949D0480E060E01B
:1015600040E00E94AB0380E061E040E00E94AB03FA
:1015700080E062E040E00E94AB0381E065E040E093
:101580000E94AB0381E067E040E00E94AB0381E092
:1015900066E041E00E94AB0381E064E040E00E942D
:1015A000AB0381E064E040E00E949D040E94B7002C
:1015B0000E9448070E94F0080E948506CF91DF91A3
:1015C00008950F931F93DF93CF93CDB7DEB780912C
:1015D0008C0090918D00FC0180E090E060E074E070
:1015E00040E050E024E630E08F010E944900853061
:1015F000910534F082E062E041E00E949D0418C051
:1016000080918C0090918D00FC0180E090E060E082
:1016100074E040E050E024E630E08F010E94490091
:10162000853091052CF482E062E040E00E949D0448
:1016300080918700813009F04AC080918A009091A2
:101640008B00CC01A0E0B0E028E833E140E050E0BE
:10165000BC01CD010E948F0CDC01CB01072E7AE08A
:10166000B695A795979587957A95D1F7702D8A3F6E
:10167000910548F082E061E041E00E949D0481E034
:101680008093990024C080918A0090918B00CC01B6
:10169000A0E0B0E028E833E140E050E0BC01CD013B
:1016A0000E948F0CDC01CB01072E7AE0B695A7953E
:1016B000979587957A95D1F7702D8A3F910538F4E3
:1016C00082E061E040E00E949D04109299008091C8
:1016D00086008130B1F580918E0090918F00FC01E1
:1016E00080E090E060E074E040E050E024E630E02C
:1016F0008F010E9449008332910544F082E060E04E
:1017000040E00E949D0410929A001BC080918E00C0
:1017100090918F00FC0180E090E060E074E040E098
:1017200050E024E630E08F010E94490083329105A9
:1017300044F482E060E041E00E949D0481E08093F7
:101740009A00CF91DF911F910F9108950F931F93EE
:10175000DF93CF93CDB7DEB780918400853709F052
:101760005CC080918A0090918B00CC01A0E0B0E039
:1017700028E833E140E050E0BC01CD010E948F0C2D
:10178000DC01CB01072E7AE0B695A7959795879552
:101790007A95D1F7702D2AE030E0B9010E94AE0CA5
:1017A000CB010E948F0980E20E942F0980918C005A
:1017B00090918D00FC0180E090E060E074E040E0FA
:1017C00050E024E630E08F010E9449000E948F091A
:1017D00080E20E942F0980918E0090918F00FC0181
:1017E00080E090E060E074E040E050E024E630E02B
:1017F0008F010E9449000E948F0980E20E942F09F8
:10180000809198000E948F09809199000E948F0911
:1018100080919A000E948F0968C080918400813372
:1018200049F482E063E040E00E949D0481E08093FF
:1018300098005BC080918400823341F482E063E0D1
:1018400041E00E949D04109298004FC08091840056
:10185000833349F482E060E041E00E949D0481E02E
:1018600080939A0042C080918400843341F482E0E6
:1018700060E040E00E949D0410929A0036C0809182
:101880008400853349F482E061E041E00E949D04D8
:1018900081E08093990029C080918400863341F4CF
:1018A00082E061E040E00E949D04109299001DC01A
:1018B00080918400873321F481E08093860015C0F5
:1018C00080918400883319F4109286000EC08091B4
:1018D0008400893321F481E08093870006C08091E1
:1018E0008400813611F410928700CF91DF911F910F
:1018F0000F910895DF93CF93CDB7DEB78091850028
:10190000813051F482E063E040E00E949D0481E078
:101910008093980010929000CF91DF910895629F7C
:10192000D001739FF001829FE00DF11D649FE00DD7
:10193000F11D929FF00D839FF00D749FF00D659F38
:10194000F00D9927729FB00DE11DF91F639FB00D37
:10195000E11DF91FBD01CF0111240895AA1BBB1B76
:1019600051E107C0AA1FBB1FA617B70710F0A61B9F
:10197000B70B881F991F5A95A9F780959095BC01C0
:10198000CD01089597FB092E07260AD077FD04D0D4
:10199000E5DF06D000201AF4709561957F4F089519
:1019A000F6F7909581959F4F0895FB019F01E8946C
:1019B0004230C4F04532B4F44A3029F497FB1EF4A7
:1019C000909581959F4F642F77270E94AE0C805D84
:1019D0008A330CF0895D8193CB010097A1F716F44F
:1019E0005DE251931082C9010C94F60CDC01FC01FC
:1019F000672F71917723E1F7329704C07C916D9343
:101A000070836291AE17BF07C8F30895F894FFCFB3
:041A100000010200CF
:00000001FF
