:100000000C942A000C943C000C943C000C943C0092
:100010000C943C000C943C000C943C000C943C0070
:100020000C943C000C943C000C945F020C948602EF
:100030000C943C000C943C000C943C000C943C0050
:100040000C943C000C943C000C943C000C943C0040
:100050000C943C0011241FBECFE5D8E0DEBFCDBF1D
:1000600010E0A0E6B0E001C01D92A037B107E1F7B3
:100070000E94BC020C9400030C940000813081F0BB
:10008000813028F08230A9F0833021F51BC0613027
:1000900019F48FEF8ABB08956623E1F41ABA089524
:1000A000613019F48FEF87BB0895662399F417BA6E
:1000B0000895613019F48FEF84BB0895662351F4DD
:1000C00014BA0895613019F48FEF81BB0895662347
:1000D00009F411BA0895813091F0813028F082300E
:1000E000C9F0833061F521C0613019F48FEF8BBB0B
:1000F0000895662311F41BBA08956BBB089561300F
:1001000019F48FEF88BB0895662311F418BA089587
:1001100068BB0895613019F48FEF85BB089566239D
:1001200011F415BA089565BB0895613019F48FEF85
:1001300082BB0895662311F412BA089562BB089534
:10014000813029F1813038F0823009F43CC08330AD
:1001500009F06EC053C0413059F42AB381E090E0F9
:1001600002C0880F991F6A95E2F7282B2ABB0895D1
:10017000442309F05DC02AB381E090E002C0880FFB
:10018000991F6A95E2F7809582238ABB08954130D2
:1001900059F427B381E090E002C0880F991F6A9557
:1001A000E2F7282B27BB0895442309F041C027B369
:1001B00081E090E002C0880F991F6A95E2F7809570
:1001C000822387BB0895413059F424B381E090E045
:1001D00002C0880F991F6A95E2F7282B24BB089567
:1001E000442331F524B381E090E002C0880F991FC9
:1001F0006A95E2F78095822384BB0895413059F4D3
:1002000021B381E090E002C0880F991F6A95E2F760
:10021000282B21BB0895442359F421B381E090E0B9
:1002200002C0880F991F6A95E2F78095822381BBEF
:100230000895813029F1813038F0823009F43CC0D2
:10024000833009F06EC053C0413059F42BB381E0C4
:1002500090E002C0880F991F6A95E2F7282B2BBB0C
:100260000895442309F05DC02BB381E090E002C003
:10027000880F991F6A95E2F7809582238BBB0895BA
:10028000413059F428B381E090E002C0880F991FF3
:100290006A95E2F7282B28BB0895442309F041C052
:1002A00028B381E090E002C0880F991F6A95E2F7B9
:1002B0008095822388BB0895413059F425B381E0AD
:1002C00090E002C0880F991F6A95E2F7282B25BBA2
:1002D0000895442331F525B381E090E002C0880FF2
:1002E000991F6A95E2F78095822385BB0895413076
:1002F00059F422B381E090E002C0880F991F6A95FB
:10030000E2F7282B22BB0895442359F422B381E05D
:1003100090E002C0880F991F6A95E2F780958223CA
:1003200082BB0895813091F0813028F08230C9F08D
:10033000833061F521C02BB381E090E002C0880FCB
:10034000991F6A95E2F728272BBB089528B381E00F
:1003500090E002C0880F991F6A95E2F7282728BB12
:10036000089525B381E090E002C0880F991F6A9537
:10037000E2F7282725BB089522B381E090E002C070
:10038000880F991F6A95E2F7282722BB08958130CC
:1003900049F0813028F0823039F08330B1F40DC05B
:1003A00089B303C086B301C083B390E002C09595C2
:1003B00087956A95E2F78170089580B390E002C056
:1003C000959587956A95E2F7817008958FB7806853
:1003D0008FBF08958FB78F778FBF089590E0A0E605
:1003E000B0E0880F991F880F991FFD01E80FF91FD2
:1003F00071836083A80FB91F13965C934E93129775
:10040000089580916C0090916D00019690936D001D
:1004100080936C0060916000709161000E94EC021A
:10042000892B29F4E0916200F091630009956091B5
:1004300064007091650080916C0090916D000E9445
:10044000EC02892B29F4E0916600F0916700099590
:10045000609168007091690080916C0090916D00CE
:100460000E94EC02892B29F4E0916A00F0916B0064
:10047000099508950E94410281E092E00E94550290
:10048000089583B78C7F826083BF83B78F7B83BFE0
:1004900083B7877F83BF83B78F7B83BF83B7886032
:1004A00083BF8FEF8CBF12BE089529B7226029BF8A
:1004B00090936F0080936E0008958CBF08951F92F3
:1004C0000F920FB60F9211242F933F934F935F9388
:1004D0006F937F938F939F93AF93BF93EF93FF930C
:1004E000E0916E00F0916F000995FF91EF91BF913F
:1004F000AF919F918F917F916F915F914F913F91BC
:100500002F910F900FBE0F901F9018951F920F9272
:100510000FB60F9211242F933F934F935F936F93D6
:100520007F938F939F93AF93BF93EF93FF93E0914C
:100530006E00F0916F000995FF91EF91BF91AF911F
:100540009F918F917F916F915F914F913F912F91EB
:100550000F900FBE0F901F90189583E062E00E94ED
:100560009201089583E061E00E949201089583E082
:1005700060E00E949201089583E061E00E943E00E5
:1005800083E060E040E00E94190183E061E040E028
:100590000E94190183E062E040E00E9419010E947C
:1005A000E60180E090E068EE73E047EB52E00E94E5
:1005B000EE0181E090E060ED77E042EB52E00E94D6
:1005C000EE0182E090E068E873E14DEA52E00E94BB
:1005D000EE010E943A02FFCFAA1BBB1B51E107C0EC
:1005E000AA1FBB1FA617B70710F0A61BB70B881FC3
:1005F000991F5A95A9F780959095BC01CD01089552
:04060000F894FFCF9C
:00000001FF
